{
  "contractName": "CrossBorderTransaction",
  "abi": [
    {
      "inputs": [],
      "stateMutability": "nonpayable",
      "type": "constructor"
    },
    {
      "anonymous": false,
      "inputs": [
        {
          "indexed": true,
          "internalType": "address",
          "name": "user",
          "type": "address"
        },
        {
          "indexed": false,
          "internalType": "string",
          "name": "fromCurrency",
          "type": "string"
        },
        {
          "indexed": false,
          "internalType": "string",
          "name": "toCurrency",
          "type": "string"
        },
        {
          "indexed": false,
          "internalType": "uint256",
          "name": "amount",
          "type": "uint256"
        },
        {
          "indexed": false,
          "internalType": "uint256",
          "name": "convertedAmount",
          "type": "uint256"
        }
      ],
      "name": "ConversionOccurred",
      "type": "event"
    },
    {
      "anonymous": false,
      "inputs": [
        {
          "indexed": true,
          "internalType": "address",
          "name": "sender",
          "type": "address"
        },
        {
          "indexed": true,
          "internalType": "address",
          "name": "recipient",
          "type": "address"
        },
        {
          "indexed": false,
          "internalType": "uint256",
          "name": "amount",
          "type": "uint256"
        }
      ],
      "name": "TransactionOccurred",
      "type": "event"
    },
    {
      "anonymous": false,
      "inputs": [
        {
          "indexed": true,
          "internalType": "address",
          "name": "walletAddress",
          "type": "address"
        },
        {
          "indexed": false,
          "internalType": "string",
          "name": "username",
          "type": "string"
        }
      ],
      "name": "UserRegistered",
      "type": "event"
    },
    {
      "anonymous": false,
      "inputs": [
        {
          "indexed": true,
          "internalType": "address",
          "name": "user",
          "type": "address"
        },
        {
          "indexed": false,
          "internalType": "uint256",
          "name": "amount",
          "type": "uint256"
        }
      ],
      "name": "WithdrawalOccurred",
      "type": "event"
    },
    {
      "inputs": [],
      "name": "admin",
      "outputs": [
        {
          "internalType": "address",
          "name": "",
          "type": "address"
        }
      ],
      "stateMutability": "view",
      "type": "function",
      "constant": true
    },
    {
      "inputs": [
        {
          "internalType": "string",
          "name": "",
          "type": "string"
        },
        {
          "internalType": "string",
          "name": "",
          "type": "string"
        }
      ],
      "name": "conversionRates",
      "outputs": [
        {
          "internalType": "uint256",
          "name": "",
          "type": "uint256"
        }
      ],
      "stateMutability": "view",
      "type": "function",
      "constant": true
    },
    {
      "inputs": [
        {
          "internalType": "address",
          "name": "",
          "type": "address"
        }
      ],
      "name": "userProfiles",
      "outputs": [
        {
          "internalType": "address",
          "name": "walletAddress",
          "type": "address"
        },
        {
          "internalType": "string",
          "name": "username",
          "type": "string"
        },
        {
          "internalType": "string",
          "name": "fullName",
          "type": "string"
        },
        {
          "internalType": "string",
          "name": "withdrawalBankDetails",
          "type": "string"
        },
        {
          "internalType": "string",
          "name": "emailAddress",
          "type": "string"
        },
        {
          "internalType": "string",
          "name": "chosenCurrency",
          "type": "string"
        }
      ],
      "stateMutability": "view",
      "type": "function",
      "constant": true
    },
    {
      "stateMutability": "payable",
      "type": "receive",
      "payable": true
    },
    {
      "inputs": [
        {
          "internalType": "string",
          "name": "_username",
          "type": "string"
        },
        {
          "internalType": "string",
          "name": "_fullName",
          "type": "string"
        },
        {
          "internalType": "string",
          "name": "_withdrawalBankDetails",
          "type": "string"
        },
        {
          "internalType": "string",
          "name": "_emailAddress",
          "type": "string"
        },
        {
          "internalType": "string",
          "name": "_chosenCurrency",
          "type": "string"
        }
      ],
      "name": "registerUser",
      "outputs": [],
      "stateMutability": "nonpayable",
      "type": "function"
    },
    {
      "inputs": [
        {
          "internalType": "address",
          "name": "_user",
          "type": "address"
        }
      ],
      "name": "getUserProfile",
      "outputs": [
        {
          "components": [
            {
              "internalType": "address",
              "name": "walletAddress",
              "type": "address"
            },
            {
              "internalType": "string",
              "name": "username",
              "type": "string"
            },
            {
              "internalType": "string",
              "name": "fullName",
              "type": "string"
            },
            {
              "internalType": "string",
              "name": "withdrawalBankDetails",
              "type": "string"
            },
            {
              "internalType": "string",
              "name": "emailAddress",
              "type": "string"
            },
            {
              "internalType": "string",
              "name": "chosenCurrency",
              "type": "string"
            }
          ],
          "internalType": "struct CrossBorderTransaction.UserProfile",
          "name": "",
          "type": "tuple"
        }
      ],
      "stateMutability": "view",
      "type": "function",
      "constant": true
    },
    {
      "inputs": [],
      "name": "getUserBalance",
      "outputs": [
        {
          "internalType": "uint256",
          "name": "",
          "type": "uint256"
        }
      ],
      "stateMutability": "view",
      "type": "function",
      "constant": true
    },
    {
      "inputs": [
        {
          "internalType": "string",
          "name": "fromCurrency",
          "type": "string"
        },
        {
          "internalType": "string",
          "name": "toCurrency",
          "type": "string"
        },
        {
          "internalType": "uint256",
          "name": "amount",
          "type": "uint256"
        }
      ],
      "name": "convertCurrency",
      "outputs": [
        {
          "internalType": "uint256",
          "name": "",
          "type": "uint256"
        }
      ],
      "stateMutability": "view",
      "type": "function",
      "constant": true
    },
    {
      "inputs": [
        {
          "internalType": "address",
          "name": "_recipient",
          "type": "address"
        },
        {
          "internalType": "uint256",
          "name": "_amountInETH",
          "type": "uint256"
        }
      ],
      "name": "initiateTransaction",
      "outputs": [],
      "stateMutability": "payable",
      "type": "function",
      "payable": true
    },
    {
      "inputs": [],
      "name": "initializeConversionRates",
      "outputs": [],
      "stateMutability": "nonpayable",
      "type": "function"
    },
    {
      "inputs": [
        {
          "internalType": "uint256",
          "name": "amount",
          "type": "uint256"
        }
      ],
      "name": "withdraw",
      "outputs": [],
      "stateMutability": "payable",
      "type": "function",
      "payable": true
    }
  ],
  "bytecode": "0x608060405234801561001057600080fd5b5033600260006101000a81548173ffffffffffffffffffffffffffffffffffffffff021916908373ffffffffffffffffffffffffffffffffffffffff1602179055506122e7806100616000396000f3fe6080604052600436106100955760003560e01c8063987ee15611610059578063987ee15614610190578063ac9f0a40146101cd578063b7013dc1146101f6578063c3fa3acf14610221578063f851a4401461023d5761009c565b806326573b84146100a15780632e1a7d4d146100de578063332d56d7146100fa57806363e07f261461013c57806385de8379146101535761009c565b3661009c57005b600080fd5b3480156100ad57600080fd5b506100c860048036038101906100c3919061144b565b610268565b6040516100d591906114e5565b60405180910390f35b6100f860048036038101906100f39190611500565b61034e565b005b34801561010657600080fd5b50610121600480360381019061011c919061158b565b6104a5565b60405161013396959493929190611646565b60405180910390f35b34801561014857600080fd5b506101516107a9565b005b34801561015f57600080fd5b5061017a600480360381019061017591906116ca565b6108b7565b60405161018791906114e5565b60405180910390f35b34801561019c57600080fd5b506101b760048036038101906101b2919061158b565b610908565b6040516101c49190611840565b60405180910390f35b3480156101d957600080fd5b506101f460048036038101906101ef9190611862565b610d60565b005b34801561020257600080fd5b5061020b610fbe565b60405161021891906114e5565b60405180910390f35b61023b60048036038101906102369190611969565b610fdd565b005b34801561024957600080fd5b50610252611249565b60405161025f91906119a9565b60405180910390f35b60008060018560405161027b9190611a00565b9081526020016040518091039020846040516102979190611a00565b908152602001604051809103902054116102e6576040517f08c379a00000000000000000000000000000000000000000000000000000000081526004016102dd90611a63565b60405180910390fd5b6000670de0b6b3a76400006001866040516103019190611a00565b90815260200160405180910390208560405161031d9190611a00565b908152602001604051809103902054846103379190611ab2565b6103419190611b23565b9050809150509392505050565b80341015610391576040517f08c379a000000000000000000000000000000000000000000000000000000000815260040161038890611ba0565b60405180910390fd5b803373ffffffffffffffffffffffffffffffffffffffff163110156103eb576040517f08c379a00000000000000000000000000000000000000000000000000000000081526004016103e290611c0c565b60405180910390fd5b600260009054906101000a900473ffffffffffffffffffffffffffffffffffffffff1673ffffffffffffffffffffffffffffffffffffffff166108fc829081150290604051600060405180830381858888f19350505050158015610453573d6000803e3d6000fd5b503373ffffffffffffffffffffffffffffffffffffffff167f85563b0282e33155bfa7fb44a4cc46cec50ddb5b76c63de5936a67417c6fecc28260405161049a91906114e5565b60405180910390a250565b60006020528060005260406000206000915090508060000160009054906101000a900473ffffffffffffffffffffffffffffffffffffffff16908060010180546104ee90611c5b565b80601f016020809104026020016040519081016040528092919081815260200182805461051a90611c5b565b80156105675780601f1061053c57610100808354040283529160200191610567565b820191906000526020600020905b81548152906001019060200180831161054a57829003601f168201915b50505050509080600201805461057c90611c5b565b80601f01602080910402602001604051908101604052809291908181526020018280546105a890611c5b565b80156105f55780601f106105ca576101008083540402835291602001916105f5565b820191906000526020600020905b8154815290600101906020018083116105d857829003601f168201915b50505050509080600301805461060a90611c5b565b80601f016020809104026020016040519081016040528092919081815260200182805461063690611c5b565b80156106835780601f1061065857610100808354040283529160200191610683565b820191906000526020600020905b81548152906001019060200180831161066657829003601f168201915b50505050509080600401805461069890611c5b565b80601f01602080910402602001604051908101604052809291908181526020018280546106c490611c5b565b80156107115780601f106106e657610100808354040283529160200191610711565b820191906000526020600020905b8154815290600101906020018083116106f457829003601f168201915b50505050509080600501805461072690611c5b565b80601f016020809104026020016040519081016040528092919081815260200182805461075290611c5b565b801561079f5780601f106107745761010080835404028352916020019161079f565b820191906000526020600020905b81548152906001019060200180831161078257829003601f168201915b5050505050905086565b6601c31bffcf000060016040516107bf90611cd8565b90815260200160405180910390206040516107d990611d39565b908152602001604051809103902081905550644be1275b0060016040516107ff90611d9a565b908152602001604051809103902060405161081990611d39565b908152602001604051809103902081905550686bab17380842950000600160405161084390611d39565b908152602001604051809103902060405161085d90611cd8565b9081526020016040518091039020819055506a02846f2907624dcf500000600160405161088990611d39565b90815260200160405180910390206040516108a390611d9a565b908152602001604051809103902081905550565b60018280516020810182018051848252602083016020850120818352809550505050505081805160208101820180518482526020830160208501208183528095505050505050600091509150505481565b61091061126f565b600073ffffffffffffffffffffffffffffffffffffffff166000808473ffffffffffffffffffffffffffffffffffffffff1673ffffffffffffffffffffffffffffffffffffffff16815260200190815260200160002060000160009054906101000a900473ffffffffffffffffffffffffffffffffffffffff1673ffffffffffffffffffffffffffffffffffffffff16036109e0576040517f08c379a00000000000000000000000000000000000000000000000000000000081526004016109d790611dfb565b60405180910390fd5b6000808373ffffffffffffffffffffffffffffffffffffffff1673ffffffffffffffffffffffffffffffffffffffff1681526020019081526020016000206040518060c00160405290816000820160009054906101000a900473ffffffffffffffffffffffffffffffffffffffff1673ffffffffffffffffffffffffffffffffffffffff1673ffffffffffffffffffffffffffffffffffffffff168152602001600182018054610a8f90611c5b565b80601f0160208091040260200160405190810160405280929190818152602001828054610abb90611c5b565b8015610b085780601f10610add57610100808354040283529160200191610b08565b820191906000526020600020905b815481529060010190602001808311610aeb57829003601f168201915b50505050508152602001600282018054610b2190611c5b565b80601f0160208091040260200160405190810160405280929190818152602001828054610b4d90611c5b565b8015610b9a5780601f10610b6f57610100808354040283529160200191610b9a565b820191906000526020600020905b815481529060010190602001808311610b7d57829003601f168201915b50505050508152602001600382018054610bb390611c5b565b80601f0160208091040260200160405190810160405280929190818152602001828054610bdf90611c5b565b8015610c2c5780601f10610c0157610100808354040283529160200191610c2c565b820191906000526020600020905b815481529060010190602001808311610c0f57829003601f168201915b50505050508152602001600482018054610c4590611c5b565b80601f0160208091040260200160405190810160405280929190818152602001828054610c7190611c5b565b8015610cbe5780601f10610c9357610100808354040283529160200191610cbe565b820191906000526020600020905b815481529060010190602001808311610ca157829003601f168201915b50505050508152602001600582018054610cd790611c5b565b80601f0160208091040260200160405190810160405280929190818152602001828054610d0390611c5b565b8015610d505780601f10610d2557610100808354040283529160200191610d50565b820191906000526020600020905b815481529060010190602001808311610d3357829003601f168201915b5050505050815250509050919050565b600073ffffffffffffffffffffffffffffffffffffffff166000803373ffffffffffffffffffffffffffffffffffffffff1673ffffffffffffffffffffffffffffffffffffffff16815260200190815260200160002060000160009054906101000a900473ffffffffffffffffffffffffffffffffffffffff1673ffffffffffffffffffffffffffffffffffffffff1614610e30576040517f08c379a0000000000000000000000000000000000000000000000000000000008152600401610e2790611e67565b60405180910390fd5b6040518060c001604052803373ffffffffffffffffffffffffffffffffffffffff168152602001868152602001858152602001848152602001838152602001828152506000803373ffffffffffffffffffffffffffffffffffffffff1673ffffffffffffffffffffffffffffffffffffffff16815260200190815260200160002060008201518160000160006101000a81548173ffffffffffffffffffffffffffffffffffffffff021916908373ffffffffffffffffffffffffffffffffffffffff1602179055506020820151816001019081610f0d9190612033565b506040820151816002019081610f239190612033565b506060820151816003019081610f399190612033565b506080820151816004019081610f4f9190612033565b5060a0820151816005019081610f659190612033565b509050503373ffffffffffffffffffffffffffffffffffffffff167f48cac28ad4dc618e15f4c2dd5e97751182f166de97b25618318b2112aa951a2f86604051610faf9190612105565b60405180910390a25050505050565b60003373ffffffffffffffffffffffffffffffffffffffff1631905090565b600073ffffffffffffffffffffffffffffffffffffffff166000808473ffffffffffffffffffffffffffffffffffffffff1673ffffffffffffffffffffffffffffffffffffffff16815260200190815260200160002060000160009054906101000a900473ffffffffffffffffffffffffffffffffffffffff1673ffffffffffffffffffffffffffffffffffffffff16036110ad576040517f08c379a00000000000000000000000000000000000000000000000000000000081526004016110a490612173565b60405180910390fd5b600081116110f0576040517f08c379a00000000000000000000000000000000000000000000000000000000081526004016110e7906121df565b60405180910390fd5b80341015611133576040517f08c379a000000000000000000000000000000000000000000000000000000000815260040161112a90611ba0565b60405180910390fd5b60008273ffffffffffffffffffffffffffffffffffffffff163460405161115990612230565b60006040518083038185875af1925050503d8060008114611196576040519150601f19603f3d011682016040523d82523d6000602084013e61119b565b606091505b50509050806111df576040517f08c379a00000000000000000000000000000000000000000000000000000000081526004016111d690612291565b60405180910390fd5b8273ffffffffffffffffffffffffffffffffffffffff163373ffffffffffffffffffffffffffffffffffffffff167f95cb2ce7e4de45796becc95ebfb305896a3093fbe10ae64dbf6135e8a569dfc58460405161123c91906114e5565b60405180910390a3505050565b600260009054906101000a900473ffffffffffffffffffffffffffffffffffffffff1681565b6040518060c00160405280600073ffffffffffffffffffffffffffffffffffffffff16815260200160608152602001606081526020016060815260200160608152602001606081525090565b6000604051905090565b600080fd5b600080fd5b600080fd5b600080fd5b6000601f19601f8301169050919050565b7f4e487b7100000000000000000000000000000000000000000000000000000000600052604160045260246000fd5b611322826112d9565b810181811067ffffffffffffffff82111715611341576113406112ea565b5b80604052505050565b60006113546112bb565b90506113608282611319565b919050565b600067ffffffffffffffff8211156113805761137f6112ea565b5b611389826112d9565b9050602081019050919050565b82818337600083830152505050565b60006113b86113b384611365565b61134a565b9050828152602081018484840111156113d4576113d36112d4565b5b6113df848285611396565b509392505050565b600082601f8301126113fc576113fb6112cf565b5b813561140c8482602086016113a5565b91505092915050565b6000819050919050565b61142881611415565b811461143357600080fd5b50565b6000813590506114458161141f565b92915050565b600080600060608486031215611464576114636112c5565b5b600084013567ffffffffffffffff811115611482576114816112ca565b5b61148e868287016113e7565b935050602084013567ffffffffffffffff8111156114af576114ae6112ca565b5b6114bb868287016113e7565b92505060406114cc86828701611436565b9150509250925092565b6114df81611415565b82525050565b60006020820190506114fa60008301846114d6565b92915050565b600060208284031215611516576115156112c5565b5b600061152484828501611436565b91505092915050565b600073ffffffffffffffffffffffffffffffffffffffff82169050919050565b60006115588261152d565b9050919050565b6115688161154d565b811461157357600080fd5b50565b6000813590506115858161155f565b92915050565b6000602082840312156115a1576115a06112c5565b5b60006115af84828501611576565b91505092915050565b6115c18161154d565b82525050565b600081519050919050565b600082825260208201905092915050565b60005b838110156116015780820151818401526020810190506115e6565b60008484015250505050565b6000611618826115c7565b61162281856115d2565b93506116328185602086016115e3565b61163b816112d9565b840191505092915050565b600060c08201905061165b60008301896115b8565b818103602083015261166d818861160d565b90508181036040830152611681818761160d565b90508181036060830152611695818661160d565b905081810360808301526116a9818561160d565b905081810360a08301526116bd818461160d565b9050979650505050505050565b600080604083850312156116e1576116e06112c5565b5b600083013567ffffffffffffffff8111156116ff576116fe6112ca565b5b61170b858286016113e7565b925050602083013567ffffffffffffffff81111561172c5761172b6112ca565b5b611738858286016113e7565b9150509250929050565b61174b8161154d565b82525050565b600082825260208201905092915050565b600061176d826115c7565b6117778185611751565b93506117878185602086016115e3565b611790816112d9565b840191505092915050565b600060c0830160008301516117b36000860182611742565b50602083015184820360208601526117cb8282611762565b915050604083015184820360408601526117e58282611762565b915050606083015184820360608601526117ff8282611762565b915050608083015184820360808601526118198282611762565b91505060a083015184820360a08601526118338282611762565b9150508091505092915050565b6000602082019050818103600083015261185a818461179b565b905092915050565b600080600080600060a0868803121561187e5761187d6112c5565b5b600086013567ffffffffffffffff81111561189c5761189b6112ca565b5b6118a8888289016113e7565b955050602086013567ffffffffffffffff8111156118c9576118c86112ca565b5b6118d5888289016113e7565b945050604086013567ffffffffffffffff8111156118f6576118f56112ca565b5b611902888289016113e7565b935050606086013567ffffffffffffffff811115611923576119226112ca565b5b61192f888289016113e7565b925050608086013567ffffffffffffffff8111156119505761194f6112ca565b5b61195c888289016113e7565b9150509295509295909350565b600080604083850312156119805761197f6112c5565b5b600061198e85828601611576565b925050602061199f85828601611436565b9150509250929050565b60006020820190506119be60008301846115b8565b92915050565b600081905092915050565b60006119da826115c7565b6119e481856119c4565b93506119f48185602086016115e3565b80840191505092915050565b6000611a0c82846119cf565b915081905092915050565b7f436f6e76657273696f6e2072617465206e6f7420617661696c61626c65000000600082015250565b6000611a4d601d836115d2565b9150611a5882611a17565b602082019050919050565b60006020820190508181036000830152611a7c81611a40565b9050919050565b7f4e487b7100000000000000000000000000000000000000000000000000000000600052601160045260246000fd5b6000611abd82611415565b9150611ac883611415565b9250828202611ad681611415565b91508282048414831517611aed57611aec611a83565b5b5092915050565b7f4e487b7100000000000000000000000000000000000000000000000000000000600052601260045260246000fd5b6000611b2e82611415565b9150611b3983611415565b925082611b4957611b48611af4565b5b828204905092915050565b7f496e73756666696369656e742066756e64732073656e74000000000000000000600082015250565b6000611b8a6017836115d2565b9150611b9582611b54565b602082019050919050565b60006020820190508181036000830152611bb981611b7d565b9050919050565b7f496e73756666696369656e742062616c616e6365000000000000000000000000600082015250565b6000611bf66014836115d2565b9150611c0182611bc0565b602082019050919050565b60006020820190508181036000830152611c2581611be9565b9050919050565b7f4e487b7100000000000000000000000000000000000000000000000000000000600052602260045260246000fd5b60006002820490506001821680611c7357607f821691505b602082108103611c8657611c85611c2c565b5b50919050565b7f5553440000000000000000000000000000000000000000000000000000000000600082015250565b6000611cc26003836119c4565b9150611ccd82611c8c565b600382019050919050565b6000611ce382611cb5565b9150819050919050565b7f4554480000000000000000000000000000000000000000000000000000000000600082015250565b6000611d236003836119c4565b9150611d2e82611ced565b600382019050919050565b6000611d4482611d16565b9150819050919050565b7f4e474e0000000000000000000000000000000000000000000000000000000000600082015250565b6000611d846003836119c4565b9150611d8f82611d4e565b600382019050919050565b6000611da582611d77565b9150819050919050565b7f55736572206e6f7420666f756e64000000000000000000000000000000000000600082015250565b6000611de5600e836115d2565b9150611df082611daf565b602082019050919050565b60006020820190508181036000830152611e1481611dd8565b9050919050565b7f5573657220616c72656164792072656769737465726564000000000000000000600082015250565b6000611e516017836115d2565b9150611e5c82611e1b565b602082019050919050565b60006020820190508181036000830152611e8081611e44565b9050919050565b60008190508160005260206000209050919050565b60006020601f8301049050919050565b600082821b905092915050565b600060088302611ee97fffffffffffffffffffffffffffffffffffffffffffffffffffffffffffffffff82611eac565b611ef38683611eac565b95508019841693508086168417925050509392505050565b6000819050919050565b6000611f30611f2b611f2684611415565b611f0b565b611415565b9050919050565b6000819050919050565b611f4a83611f15565b611f5e611f5682611f37565b848454611eb9565b825550505050565b600090565b611f73611f66565b611f7e818484611f41565b505050565b5b81811015611fa257611f97600082611f6b565b600181019050611f84565b5050565b601f821115611fe757611fb881611e87565b611fc184611e9c565b81016020851015611fd0578190505b611fe4611fdc85611e9c565b830182611f83565b50505b505050565b600082821c905092915050565b600061200a60001984600802611fec565b1980831691505092915050565b60006120238383611ff9565b9150826002028217905092915050565b61203c826115c7565b67ffffffffffffffff811115612055576120546112ea565b5b61205f8254611c5b565b61206a828285611fa6565b600060209050601f83116001811461209d576000841561208b578287015190505b6120958582612017565b8655506120fd565b601f1984166120ab86611e87565b60005b828110156120d3578489015182556001820191506020850194506020810190506120ae565b868310156120f057848901516120ec601f891682611ff9565b8355505b6001600288020188555050505b505050505050565b6000602082019050818103600083015261211f818461160d565b905092915050565b7f526563697069656e74206e6f7420726567697374657265640000000000000000600082015250565b600061215d6018836115d2565b915061216882612127565b602082019050919050565b6000602082019050818103600083015261218c81612150565b9050919050565b7f496e76616c6964207472616e73616374696f6e20616d6f756e74000000000000600082015250565b60006121c9601a836115d2565b91506121d482612193565b602082019050919050565b600060208201905081810360008301526121f8816121bc565b9050919050565b600081905092915050565b50565b600061221a6000836121ff565b91506122258261220a565b600082019050919050565b600061223b8261220d565b9150819050919050565b7f4661696c656420746f2073656e64204574686572000000000000000000000000600082015250565b600061227b6014836115d2565b915061228682612245565b602082019050919050565b600060208201905081810360008301526122aa8161226e565b905091905056fea2646970667358221220e8230f4ff5344d69ff3f3e08fcafacaf84f3510835538fd4ffb38979b96b4b1464736f6c63430008130033",
  "immutableReferences": {},
  "source": "// SPDX-License-Identifier: UNLICENSED\r\npragma solidity ^0.8.19;\r\n\r\n\r\ncontract CrossBorderTransaction {\r\n    // Mapping of user profiles to wallet addresses\r\n    mapping(address => UserProfile) public userProfiles;\r\n\r\n    // Struct to represent user profiles\r\n    struct UserProfile {\r\n        address walletAddress;\r\n        string username;\r\n        string fullName;\r\n        string withdrawalBankDetails;\r\n        string emailAddress;\r\n        string chosenCurrency;\r\n    }\r\n\r\n    // Mapping of currency conversion rates\r\n    mapping(string => mapping(string => uint256)) public conversionRates;\r\n\r\n    // Event emitted when a user registers\r\n    event UserRegistered(address indexed walletAddress, string username);\r\n\r\n    // Event emitted when a transaction occurs\r\n    event TransactionOccurred(address indexed sender, address indexed recipient, uint256 amount);\r\n\r\n    // Event emitted when a conversion occurs\r\n    event ConversionOccurred(address indexed user, string fromCurrency, string toCurrency, uint256 amount, uint256 convertedAmount);\r\n\r\n    // Event emitted when a withdrawal occurs\r\n    event WithdrawalOccurred(address indexed user, uint256 amount);\r\n    \r\n    address public admin;\r\n\r\n    constructor() {\r\n        admin = msg.sender;\r\n    }\r\n\r\n    function registerUser(string memory _username, string memory _fullName, string memory _withdrawalBankDetails, string memory _emailAddress, string memory _chosenCurrency) public {\r\n        // Check if the user is already registered\r\n        require(userProfiles[msg.sender].walletAddress == address(0), \"User already registered\");\r\n\r\n        // Create a new user profile\r\n        userProfiles[msg.sender] = UserProfile(msg.sender, _username, _fullName, _withdrawalBankDetails, _emailAddress, _chosenCurrency);\r\n\r\n        // Emit the UserRegistered event\r\n        emit UserRegistered(msg.sender, _username);\r\n    }\r\n    receive() external payable {}\r\n\r\n    // Function to get a specific user's profile by address\r\n    function getUserProfile(address _user) public view returns (UserProfile memory) {\r\n        require(userProfiles[_user].walletAddress != address(0), \"User not found\");\r\n        return userProfiles[_user];\r\n    }\r\n\r\n    // Function to get the user's balance\r\n    function getUserBalance() public view returns (uint256) {\r\n        return msg.sender.balance;\r\n    }\r\n\r\n    // Convert Currency\r\n    function convertCurrency(string memory fromCurrency, string memory toCurrency, uint256 amount) public view returns (uint256) {\r\n        require(conversionRates[fromCurrency][toCurrency] > 0, \"Conversion rate not available\");\r\n        \r\n        // Convert using rate scaled up to 1e18\r\n        uint256 convertedAmount = (amount * conversionRates[fromCurrency][toCurrency]) / 1e18;\r\n        return convertedAmount;\r\n    }\r\n\r\n    // Function to initiate a transaction\r\n    function initiateTransaction(address _recipient, uint256 _amountInETH) public payable {\r\n        require(userProfiles[_recipient].walletAddress != address(0), \"Recipient not registered\");\r\n        require(_amountInETH > 0, \"Invalid transaction amount\");\r\n        require(msg.value >= _amountInETH, \"Insufficient funds sent\");  // Fix: Convert _amountInETH to Wei\r\n\r\n        // Transfer ETH\r\n        (bool sent, ) = payable(_recipient).call{value: msg.value}(\"\");\r\n        require(sent, \"Failed to send Ether\");\r\n\r\n        emit TransactionOccurred(msg.sender, _recipient, _amountInETH);\r\n    }\r\n\r\n\r\n    // Function to initialize the conversion rates\r\n    function initializeConversionRates() public {\r\n        // USD to ETH conversion (Assume 1 USD = 0.000496 ETH, scaled up)\r\n        conversionRates[\"USD\"][\"ETH\"] = 496 * 1e18 / 1e6;\r\n\r\n        // NGN to ETH conversion (Assume 1 NGN = 0.0000003259 ETH, scaled up)\r\n        conversionRates[\"NGN\"][\"ETH\"] = 3259 * 1e18 / 1e10;\r\n\r\n        // ETH to USD conversion (Assume 1 ETH = 1986.13 USD, scaled up)\r\n        conversionRates[\"ETH\"][\"USD\"] = 198613 * 1e18 / 1e2;\r\n\r\n        // ETH to NGN conversion (Assume 1 ETH = 3043254.56 NGN, scaled up)\r\n        conversionRates[\"ETH\"][\"NGN\"] = 304325456 * 1e18 / 1e2;\r\n    }\r\n\r\n     // New function to withdraw funds\r\n    function withdraw(uint256 amount) public payable {\r\n        require(msg.value >= amount, \"Insufficient funds sent\");\r\n        require(msg.sender.balance >= amount, \"Insufficient balance\");\r\n        \r\n        // Transfer the withdrawn amount to the admin's address\r\n        payable(admin).transfer(amount);\r\n        \r\n        emit WithdrawalOccurred(msg.sender, amount);\r\n    }\r\n\r\n}\r\n",
  "sourcePath": "C:\\Users\\Buzz brain\\Desktop\\crossborder\\smart-contract\\contracts\\CrossBorderTransaction.sol",
  "compiler": {
    "name": "solc",
    "version": "0.8.19+commit.7dd6d404.Emscripten.clang"
  },
  "schemaVersion": "3.4.16",
  "updatedAt": "2025-04-08T07:31:11.813Z",
  "networkType": "ethereum",
  "devdoc": {
    "kind": "dev",
    "methods": {},
    "version": 1
  },
  "userdoc": {
    "kind": "user",
    "methods": {},
    "version": 1
  }
}